{
  "contractName": "MyContract",
  "abi": [
    {
      "inputs": [
        {
          "internalType": "string",
          "name": "_moviename",
          "type": "string"
        },
        {
          "internalType": "uint256",
          "name": "_rating",
          "type": "uint256"
        }
      ],
      "payable": false,
      "stateMutability": "nonpayable",
      "type": "constructor"
    },
    {
      "constant": true,
      "inputs": [],
      "name": "movieCount",
      "outputs": [
        {
          "internalType": "uint256",
          "name": "",
          "type": "uint256"
        }
      ],
      "payable": false,
      "stateMutability": "view",
      "type": "function"
    },
    {
      "constant": true,
      "inputs": [
        {
          "internalType": "uint256",
          "name": "",
          "type": "uint256"
        }
      ],
      "name": "movieList",
      "outputs": [
        {
          "internalType": "string",
          "name": "_moviename",
          "type": "string"
        },
        {
          "internalType": "uint256",
          "name": "rating",
          "type": "uint256"
        }
      ],
      "payable": false,
      "stateMutability": "view",
      "type": "function"
    },
    {
      "constant": false,
      "inputs": [
        {
          "internalType": "string",
          "name": "_moviename",
          "type": "string"
        },
        {
          "internalType": "uint256",
          "name": "_rating",
          "type": "uint256"
        }
      ],
      "name": "addPerson",
      "outputs": [],
      "payable": false,
      "stateMutability": "nonpayable",
      "type": "function"
    },
    {
      "constant": true,
      "inputs": [
        {
          "internalType": "uint256",
          "name": "_movieCount",
          "type": "uint256"
        }
      ],
      "name": "returnRating",
      "outputs": [
        {
          "internalType": "string",
          "name": "",
          "type": "string"
        },
        {
          "internalType": "uint256",
          "name": "",
          "type": "uint256"
        }
      ],
      "payable": false,
      "stateMutability": "view",
      "type": "function"
    }
  ],
  "bytecode": "0x608060405234801561001057600080fd5b506040516107823803806107828339818101604052604081101561003357600080fd5b810190808051604051939291908464010000000082111561005357600080fd5b8382019150602082018581111561006957600080fd5b825186600182028301116401000000008211171561008657600080fd5b8083526020830192505050908051906020019080838360005b838110156100ba57808201518184015260208101905061009f565b50505050905090810190601f1680156100e75780820380516001836020036101000a031916815260200191505b50604052602001805190602001909291905050506001600080828254019250508190555060405180604001604052808381526020018281525060016000805481526020019081526020016000206000820151816000019080519060200190610150929190610165565b5060208201518160010155905050505061020a565b828054600181600116156101000203166002900490600052602060002090601f016020900481019282601f106101a657805160ff19168380011785556101d4565b828001600101855582156101d4579182015b828111156101d35782518255916020019190600101906101b8565b5b5090506101e191906101e5565b5090565b61020791905b808211156102035760008160009055506001016101eb565b5090565b90565b610569806102196000396000f3fe608060405234801561001057600080fd5b506004361061004c5760003560e01c80636f760f4114610051578063a1daf32614610116578063bf58ae3d14610134578063d346d538146101e2575b600080fd5b6101146004803603604081101561006757600080fd5b810190808035906020019064010000000081111561008457600080fd5b82018360208201111561009657600080fd5b803590602001918460018302840111640100000000831117156100b857600080fd5b91908080601f016020809104026020016040519081016040528093929190818152602001838380828437600081840152601f19601f82011690508083019250505050505050919291929080359060200190929190505050610290565b005b61011e6102f7565b6040518082815260200191505060405180910390f35b6101606004803603602081101561014a57600080fd5b81019080803590602001909291905050506102fd565b6040518080602001838152602001828103825284818151815260200191508051906020019080838360005b838110156101a657808201518184015260208101905061018b565b50505050905090810190601f1680156101d35780820380516001836020036101000a031916815260200191505b50935050505060405180910390f35b61020e600480360360208110156101f857600080fd5b81019080803590602001909291905050506103b9565b6040518080602001838152602001828103825284818151815260200191508051906020019080838360005b83811015610254578082015181840152602081019050610239565b50505050905090810190601f1680156102815780820380516001836020036101000a031916815260200191505b50935050505060405180910390f35b60016000808282540192505081905550604051806040016040528083815260200182815250600160008054815260200190815260200160002060008201518160000190805190602001906102e592919061048f565b50602082015181600101559050505050565b60005481565b6001602052806000526040600020600091509050806000018054600181600116156101000203166002900480601f0160208091040260200160405190810160405280929190818152602001828054600181600116156101000203166002900480156103a95780601f1061037e576101008083540402835291602001916103a9565b820191906000526020600020905b81548152906001019060200180831161038c57829003601f168201915b5050505050908060010154905082565b60606000600160008481526020019081526020016000206000016001600085815260200190815260200160002060010154818054600181600116156101000203166002900480601f01602080910402602001604051908101604052809291908181526020018280546001816001161561010002031660029004801561047f5780601f106104545761010080835404028352916020019161047f565b820191906000526020600020905b81548152906001019060200180831161046257829003601f168201915b5050505050915091509150915091565b828054600181600116156101000203166002900490600052602060002090601f016020900481019282601f106104d057805160ff19168380011785556104fe565b828001600101855582156104fe579182015b828111156104fd5782518255916020019190600101906104e2565b5b50905061050b919061050f565b5090565b61053191905b8082111561052d576000816000905550600101610515565b5090565b9056fea265627a7a723158204a1ce35a61a97664560d8a7ff358803eb54ff28aa06df6db7e4c9830766ae09564736f6c63430005100032",
  "source": "// SPDX-License-Identifier: MIT\r\npragma solidity >=0.5.1;\r\n\r\ncontract MyContract{\r\n    \r\n    uint public movieCount;\r\n    mapping(uint => Movie) public movieList;\r\n    constructor (string memory _moviename,uint _rating) public {\r\n        movieCount+=1;\r\n        movieList[movieCount]=Movie(_moviename,_rating);\r\n    }\r\n\r\n    struct Movie{\r\n        string _moviename;\r\n        uint rating;\r\n    }\r\n    function addPerson(string memory _moviename,uint  _rating) public{\r\n        movieCount+=1;\r\n        movieList[movieCount]=Movie(_moviename,_rating);\r\n    }\r\n    function returnRating(uint _movieCount) public view returns(string memory,uint){\r\n        return (movieList[_movieCount]._moviename,movieList[_movieCount].rating);\r\n    }\r\n}",
  "sourcePath": "F:/BlockChain/SmartContracts/contracts/Rating.sol",
  "compiler": {
    "name": "solc",
    "version": "0.5.16+commit.9c3226ce.Emscripten.clang"
  },
  "schemaVersion": "3.3.1",
  "updatedAt": "2020-10-24T10:58:45.914Z",
  "devdoc": {
    "methods": {}
  },
  "userdoc": {
    "methods": {}
  }
}